:020000040800F2
:10800000A0570010D181000899010108E1F2000891
:10801000FD000108AF87000871870108000000001B
:10802000000000000000000000000000E76F0108F1
:10803000998E0008000000001B840008C12401087C
:10804000EB810008EB810008EB8100080D5401086A
:10805000EB810008EB810008EB810008EB81000850
:10806000358F0008EB810008EB810008EB810008E8
:10807000EB810008BD8C0008EB810008EB81000853
:10808000EB810008EB810008EB810008EB81000820
:10809000EB810008EB810008EB8100083D8F0008B0
:1080A000EB810008EB810008EB810008EB81000800
:1080B000EB810008EB810008EB810008EB810008F0
:1080C000EB810008EB810008EB810008EB810008E0
:1080D000EB810008298701084187010859870108B9
:1080E000218F0008EB810008EB810008EB8100087C
:1080F000EB810008EB810008EB810008EB810008B0
:10810000EB810008E9600108EB810008EB810008C1
:10811000EB810008EB810008EB810008EB8100088F
:10812000EB810008EB810008EB810008EB8100087F
:10813000EB810008EB810008EB810008EB8100086F
:10814000EB810008EB810008EB810008EB8100085F
:10815000EB810008EB8100083DF30008EB8100088B
:10816000EB810008EB810008EB810008EB8100083F
:10817000EB810008EB810008EB81000800000000A3
:10818000EB810008EB810008DFF80CD000F004F967
:108190000048004755300208A057001072B67047DB
:1081A00062B67047EFF3108072B6704780F31088A4
:1081B000704730BF704720BF7047B0FA80F07047FB
:1081C00090FAA0F0B0FA80F0704790FAA0F07047F3
:1081D0000648804706480047FEE7FEE7FEE7FEE761
:1081E000FEE7FEE7FEE7FEE7FEE7FEE72177010890
:1081F000898100082DE9F05F0546002092469B46E4
:1082000088460646814640241BE0284641464746AC
:10821000224600F0B1F853465A46C01A914110D395
:1082200011461846224600F098F82D1A67EB01080F
:108230004F4622460120002100F08FF817EB00097D
:108240004E41201EA4F10104DFDC484631462A4697
:10825000434600F000B830BCBDE8C09F0649074A5D
:108260000868504343F239021044086040087047E0
:108270000149086070470000900100206D4EC64122
:1082800040EA01039B0703D009E008C9121F08C098
:10829000042AFAD203E011F8013B00F8013B521E18
:1082A000F9D27047D2B201E000F8012B491EFBD28F
:1082B00070470022F6E710B513460A4604461946F1
:1082C000FFF7F0FF204610BD421E12F8013F002BC1
:1082D000FBD111F8013B02F8013B002BF9D17047AB
:1082E00010B5044604E00B7800F8013B03B1491CCB
:1082F000521EF8D2204610BD421C10F8011B002966
:10830000FBD1801A704710B5002200E0521C835C3C
:108310008C5CA34201D1002BF8D1D8B2E1B2401A53
:1083200010BD30B504460020034600E05B1C9342BC
:1083300003D2E05CCD5C401BF8D030BD30B50546C3
:108340000020034600E05B1C934205D2EC5CC85C55
:10835000201A01D1002CF6D130BD202A04DB203AAE
:1083600000FA02F1002070479140C2F1200320FA88
:1083700003F3194390407047202A04DB203A21FA86
:1083800002F00021704721FA02F3D040C2F120022E
:108390009140084319467047064C074D06E0E068D7
:1083A00040F0010394E8070098471034AC42F6D33C
:1083B000FFF7EEFEFC8505083C86050830B58C18F5
:1083C00010F8012B12F00F0301D110F8013B120934
:1083D00006D110F8012B03E010F8015B01F8015BF6
:1083E0005B1EF9D101E001F8013B521EFBD1A14215
:1083F000E6D3002030BD000018484FF0FF010170A7
:10840000002080F309881648016881F30888154820
:108410004FF08051016062B6FEE772B6EFF309805B
:1084200028B1203880E8F00F0F490968086000B5CE
:108430000E4880475DF804EB0D480E490A7802703B
:1084400009480D490A680260106890E8F00F203072
:1084500080F309884EF0040E62B6704722ED00E00A
:108460008001001004ED00E0E80100101123010874
:1084700046010020B20100108001002070B50446C2
:108480000068816811F0010F28D18168144A1142F7
:1084900015D18168D5432940491C816002F058FEFE
:1084A000064616E0816811F0010F03D1816829406A
:1084B000491C816002F04CFE801B022809D9606DC6
:1084C00040F010006065A06D40F00100A065012043
:1084D00070BD20680168C943C907E3D1002070BDA1
:1084E0003F00008008B500F0EBF800F061F900F003
:1084F000E5F813490968B0FBF1F009F0F9FF07F05E
:1085000003FE684609F01CFA00F09EF900F08AF8B4
:10851000002010F02FF90EF05FFD00200EF064FD3A
:10852000002006F017FF002006F096FA002007F062
:1085300035FE00F089FF6946024809F079FB08BD65
:108540004C830508A82C001008B52E4C00256A465F
:108550000021322009F010FFD4E90210091A642921
:10856000F5DB6430E0606078401C607007F058FF15
:1085700060780A28EBD30A3860701FF045FB214869
:10858000243040791E2801D11FF08AFF1D49143183
:1085900001F1100010F0B2FF1EF062FA20780028FE
:1085A000D5D1E0696428D2D3A26920691118606925
:1085B000F031814203D300F1F001914207D22561ED
:1085C000A06111A010F0BCF91EF094FDBFE74FF4BC
:1085D000616625610DE000BF0DF060FCA069B0FB95
:1085E000F6F106FB110020B90AA010F0A9F91EF05F
:1085F00081FDD4E905018142A9D220780028A6D1C5
:10860000EAE70000140000100D0ACAB1D6D3B4ED99
:10861000CEF300000D0AD5FBB5E3B1A8CAB1000046
:108620007047000010B5FFF7BDFD044600F02AF9C1
:108630000E490D4808600F490D4808600F490E4863
:10864000086010490E48086010490F480860114939
:108650000F48086011491048086000F023F92046CF
:10866000BDE81040FFF7A2BDA386000884010010FA
:10867000A586000820010020A786000888010010B8
:108680002186000824010020A18600088C0100102A
:10869000A986000828010020AD860008900100107E
:1086A0007047704770477047704700000248016884
:1086B000491C0160704700001C00001003F08CBBD7
:1086C00010B502F07DFD044801F078FE1DF07AFB44
:1086D000BDE810400FF052BC70E0002010B501243E
:1086E0008021034802F0D4FC00B10024204610BDD4
:1086F00000080048704700000146014804F0DABC59
:10870000702F001010B5044804F0E6FC042801D0D6
:10871000012010BD002010BD702F001010B500F01A
:1087200015F8012801D0022010BD074804F0E6FD2D
:10873000040006D14FF40061034804F00DFB00B1C2
:108740000124204610BD0000702F001008B5012044
:108750008DF80000FFF7C2FF10B900208DF800006F
:108760009DF8000008BD000038B5002400931346B2
:108770000A460146034804F0DBFE00B1012420460E
:1087800038BD0000702F00107047000038B500247D
:10879000009313460A460146034804F0D1FF00B196
:1087A0000124204638BD0000702F00107047FEE7FE
:1087B000054910B50020486000F0A6F800F006F862
:1087C000BDE8104000F086B8FC0000202DE9F04123
:1087D000104D002427462C806C80AC60EC606C61EE
:1087E000AC612C61FFF7DEFC804600266C6100F076
:1087F00049F800F057F86869761C36040744360CCF
:10880000F4D0C5E904744046AC61BDE8F041FFF71F
:10881000CDBC0000FC00002003490969884201D951
:10882000401A704700207047FC00002010B5FFF789
:10883000B9FC04494C69FFF7B9FC2046BDE810407B
:10884000FFF7EABFFC00002010B5FFF7EFFF04467A
:10885000FFF7A8FC034A00215161FFF7A7FC20465F
:1088600010BD0000FC00002010B5FFF79BFC044980
:108870008C69FFF79BFC2046BDE81040FFF7CCBF9A
:10888000FC00002010B5064C2088401C2080608829
:1088900010B900F051F8A0606088401C608010BDE5
:1088A000FC00002010B50A4C6088401E0004000C3B
:1088B00060800CD100F040F8E060A168401A616966
:1088C000814200D26061A169814200D2A06110BDE5
:1088D000FC00002010B5FFF765FC0446FFF7D2FF4F
:1088E0001021054807F00BFCFFF7DCFF2046BDE830
:1088F0001040FFF75BBC00002437001001494860BE
:1089000070470000FC000020094810B5016841F0E4
:1089100080710160074800214160016841F0010158
:10892000016003F059FABDE81040FFF7E7BF00000F
:10893000FCED00E0001000E00148406870470000D6
:10894000001000E038B50E4D4FF48054002221464F
:10895000284602F0C9FB0022521CD2B2052AFBD3E2
:1089600004208DF800000A2301226946054805F01D
:10897000F5F901222146284602F0B6FB38BD000079
:1089800000040048C03600101FB50446006803907C
:1089900003AA08A1684617F03BFC08B903982060B9
:1089A0006846FFF7A9FCC1B2684610F0ACFA04B003
:1089B00010BD0000436F6E74656E742D4C656E675C
:1089C0007468000000B58BB0002006AB09AA032133
:1089D000059083E807000A480DF1040C05234FF4C5
:1089E000007233218CE80F00062000900448002319
:1089F000044A05A1C83809F005F80BB000BD000015
:108A00008040002069E3010865746865726E6574D2
:108A100069665F696E707574000000002DE9FE43A1
:108A200050480025007800283AD001A80023009083
:108A30001A4619464C4807F09DFFF02014F0D7FA6B
:108A4000C0B201281ED04FF47A6024F073FAF020EF
:108A500014F0CDFAC1B2012914D069B143A00FF0CE
:108A60006FFF8021FF2014F0C7FA474814F0CAFABC
:108A70008121FF2014F0C0FA01AA00213A4808F031
:108A800095F80DE04FF0D844F220208060883F4BED
:108A90005880608840F2EE5681B29880B14202D987
:108AA000284600F0ADB80322994604201CF09EF839
:108AB00005000CD04189426803E0638822F8023B3C
:108AC000891E0029F9DC00680028F3D115E04F4623
:108AD000B9F804102EA00FF033FF0DF10808142090
:108AE00024F028FABF88142024F024FA03E06188D7
:108AF000A8F80010BF1E002FF9D1B9F802104C469B
:108B000011F43F4F04D1A088402801D3B042B3D91B
:108B100025A00FF015FF6088C00502D526A00FF034
:108B20000FFF6088800502D527A00FF009FF60883D
:108B3000000402D528A00FF003FFA088B0420AD994
:108B40002AA00FF0FDFE0121002014F055FA41F299
:108B5000883024F0EFF915B128461CF0A5FC00255B
:108B60008AE7000045000010643F0020B6C1CAFD3E
:108B7000BEDDB4EDCEF3A3ACD6D8C6F420726561E9
:108B800064793D25580D0A00CC0000109C0000209F
:108B900070627566C4DAB4E6C9EAC7EBCAA7B0DC8E
:108BA0003A25640D0A00000072785F737461747571
:108BB000733A2523780D0A007278206669666F2063
:108BC0006572726F720D0A0072782063726320659D
:108BD00072726F720D0A00007278206C656E677495
:108BE00068206572726F720D0A0000007278206C46
:108BF000656E67746820746F6F206269670D0A0084
:108C000006BCBDE8F8830000FEB5074629480025EC
:108C10002C46007800284BD002A8002300901A466A
:108C20001946254807F0A6FE8021FF2014F0E4F93C
:108C30004FF0D840F8213E46018001A912E0728928
:108C4000AA420DD97268525D0A556D1C641CE4B2CB
:108C5000ADB2022C06D1BDF804204280002401E010
:108C600036680025002EEAD1012C02D19DF80410AF
:108C70004180397AFC2014F0BFF93889010AFD20BF
:108C800014F0BAF90121022014F0B6F9FE2014F014
:108C9000AEF98007FAD50221FE2014F0ADF981214A
:108CA000FF2014F0A9F902AA0021034807F07EFF73
:108CB000FEBD000045000010643F002010B507F025
:108CC000D5FC034801F046FDBDE8104007F0DEBCCE
:108CD0007836001030B590F8444004F01C050124AB
:108CE000AC40056C6C60046863608368102B03689B
:108CF00003D099600068C26030BD9A600068C160AE
:108D000030BD00002DE9F843414D424C2868A1894F
:108D1000401A0A2804D340A00FF012FE2888A08130
:108D20006078F0263D4F002558B1F02821D0F12879
:108D300027D0F22840D000F0A1F865816670BDE828
:108D4000F883387848B136A00FF0FAFD00F096F8B5
:108D5000A57065716581667002E060790028EED1CA
:108D600032A00FF0EDFD00F089F86581F120607010
:108D7000E5E731A00FF0E4FD6078401C607065818C
:108D8000DDE73148007810B901201DF08DF810F0B2
:108D900089FC01280AD06089B0F52F7FCFD32BA0A2
:108DA0000FF0CEFD00F06AF8658119E06078401C94
:108DB00060706581A571C2E738784FF00108D8B1BD
:108DC0006A4600214FF47A7009F0D6FA10F006FBDB
:108DD000012809D06089C828B1D300F04FF8667027
:108DE000A079401CA071AAE784F8058065706581B0
:108DF0003D70A5711AA007E060893C289FD384F8D4
:108E00000580657065811AA00FF09AFD97E7000054
:108E100030000010160000202E000000010000208D
:108E20000D0AB8FCB8C44950000000000D0AD6D89D
:108E3000C6F44454550000000D0A445455C9CFB53A
:108E4000E7BCECB2E2000000400000100D0A445400
:108E500055C9CFB5E7BCECB2E2CAA7B0DC00000050
:108E60000D0A6368616E6765206970206F6B000092
:108E70000D0A445455206F6B0000000008B5002017
:108E80001DF012F86A46002140F6B83009F074FA75
:108E900001201DF009F808BD7047000070B54FF0C3
:108EA000FF341E4A04EB8101B1FBF2F3524203FB93
:108EB00002118908032202EB810240F2B555B2FB90
:108EC000F5F26D42554305EB8101C91D890801EB9F
:108ED0008105E91E9926B1FBF6F1764201FB0655A4
:108EE0000526AD1CB5FBF6F503EBC30606EB031335
:108EF00002EB83020A2901D2C91C01E00939521C84
:108F000085704170B2F5FA6F04D3A2F5FA6202706F
:108F1000002070BD00210170204670BDB13A0200F2
:108F200003480178491C01704FF4806001F018BFBC
:108F300019000010042001F013BF0000034801785D
:108F4000491C0170202001F00BBF00001800001028
:108F500030B502784378857802F5FA62022B02D99F
:108F6000DB1EDCB202E00933DCB2521E642092FB4D
:108F7000F0F36FF01800584302EB80000D4A5343A2
:108F800040F2B552504304EB041202EBC202052436
:108F9000921CB2FBF4F2DC1703EB94739B10C41722
:108FA00000EB947003EBA0001044284408600020FC
:108FB00030BD0000B13A020070470022AFF30080DC
:108FC00030B50E4B054601205C7A002C14D1587A3E
:108FD0001C54587A03EB800045605D7A03F1080069
:108FE0002A54587A421C5A72303008703A2048701D
:108FF0002F208870CC70002030BD0000B0E1002030
:1090000070B515460C4606463BB1B3F5804F07D008
:1090100040F29D1130A00FF03FFF6FF0704056E01E
:109020003B48864204D040F2A3112BA00FF034FF3E
:1090300020680F2804D94FF4D27127A00FF02CFF1D
:109040006068401E0E2804D940F2A51122A00FF03E
:1090500023FFA068401EFE2804D94FF4D3711EA040
:109060000FF01AFFE0680F2804D94FF4D5711AA049
:109070000FF012FFA06968B1B0F1805F0AD0B0F1C3
:10908000005F07D0B0F1405F04D040F2AB1112A0F6
:109090000FF002FF55B1022D08D0042D06D0062D89
:1090A00004D04FF4D6710CA00FF0F6FEA169206831
:1090B000A26808436168090141EA02210843A189C5
:1090C00040EA014056F82510124A1140084346F87C
:1090D0002500002070BD00002E2E5C44726976656C
:1090E00072735C53544D33324C3478785F48414C42
:1090F0005F4472697665725C5372635C73746D333E
:10910000326C3478785F6C6C5F666D632E63000040
:10911000040100A00000F0CF2DE9F0410C46054607
:10912000B0F1204F03D0EF2164A00FF0B5FE20680E
:1091300048B1022807D0042805D0062803D0F02122
:109140005EA00FF0A9FE606828B1022803D0F121CB
:109150005AA00FF0A1FEA06838B1042805D0082855
:1091600003D0F22155A00FF097FEE06838B1102827
:1091700005D0202803D0F32150A00FF08DFE2069E8
:109180004FF4807728B1B84203D0F4214BA00FF000
:1091900083FE606930B1B0F5007F03D0F52147A0B0
:1091A0000FF07AFEA06930B1B0F5006F03D0F62160
:1091B00042A00FF071FEE06930B1B0F5805F03D0DE
:1091C000F7213EA00FF068FE206A30B1B0F5005FD5
:1091D00003D0F82139A00FF05FFE606A30B1B0F51E
:1091E000804F03D0F92135A00FF056FEA06A30B1B0
:1091F000B0F5004F03D0FA2130A00FF04DFEE06A29
:1092000030B1B0F5002F03D0FB212CA00FF044FEAD
:10921000206B4FF4801628B1B04203D0FC2127A068
:109220000FF03AFEA06B78B1B0F5803F0CD0B0F5EE
:10923000003F09D0B0F5403F06D0B0F5802F03D0F5
:1092400039461EA00FF028FE206855F8201021F0A6
:10925000010145F82010A268082A2DD0002061687D
:109260001143E268024320691143014360690143ED
:10927000A0690143E0690143206A0143606A014338
:10928000A06A0143E06A0143206B0143A06B0143E4
:10929000206855F82020174B1A40114345F820103C
:1092A000206BB04205D1206818B1286840F48010C6
:1092B00028600020BDE8F0814020D0E72E2E5C44DD
:1092C0007269766572735C53544D33324C347878DE
:1092D0005F48414C5F4472697665725C5372635CAF
:1092E00073746D33326C3478785F6C6C5F666D6369
:1092F0002E6300008004E0FF70B516460C4605465C
:10930000B0F1204F04D04FF4B57140A00FF0C4FD70
:1093100020680F2804D940F26B113CA00FF0BCFD6F
:109320006068401E0E2804D94FF4B67137A00FF0C4
:10933000B3FDA068401EFE2804D94FF4B87133A0D5
:109340000FF0AAFDE0680F2804D940F271112FA098
:109350000FF0A2FD2069801E0E2804D94FF4B971C8
:109360002AA00FF099FD6069801E0F2804D940F2F1
:10937000731126A00FF090FDA06968B1B0F1805F75
:109380000AD0B0F1005F07D0B0F1405F04D04FF4D5
:10939000BA711EA00FF080FD56B1022E08D0042E27
:1093A00006D0062E04D040F2751118A00FF074FDFF
:1093B000D4E9000140EA0110A168A289090241EA4A
:1093C00002410843228A1F4901EB02521043227DC9
:1093D0004B0103EB02621043A269104305EB8602C6
:1093E000536803F04043184350602868C0020BD50F
:1093F000686820F47002208A01EB0050696810430D
:1094000021F4700101436960002070BD2E2E5C4480
:109410007269766572735C53544D33324C3478788C
:109420005F48414C5F4472697665725C5372635C5D
:1094300073746D33326C3478785F6C6C5F666D6317
:109440002E6300000000F0FF10B515F025FC034965
:1094500008B1002000E00120087010BDC400001019
:1094600010B5084C207820B1BDE8104006A00FF0E0
:1094700067BA0AA00FF064FA0020A07101202070E2
:1094800010BD0000140000100D0AD5FDD4DAB5C8D7
:10949000B4FDBDE1CAF8C8CECEF12E000D0AD7BC8E
:1094A000B1B8B8B4CEBBCFB5CDB32E0070B51848A7
:1094B000184C0022027021688B0726D04270164893
:1094C0000078002820D11548007800281CD0880793
:1094D00005D516F069FC206820F0020013E0C807EB
:1094E00012D016F0E3F90E4D18B9286840F040008C
:1094F000286016F05BFA18B9286840F080002860F0
:10950000206820F00100206070BD0121417070BD15
:109510004C00001004000010470000104100001033
:109520000000001070B50B46054605A20AA10FF019
:10953000FDFD0446281909A10FF012FA204470BD60
:109540002F496D6167652F6368616E6E656C732F5F
:10955000312F436F6C6F7200474554000D0A0000B5
:1095600070B50B46054605A20AA10FF0DFFD0446C3
:10957000281909A10FF0F4F9204470BD2F5374721B
:1095800065616D696E672F6368616E6E656C732FC0
:1095900031000000474554000D0A000070B50B462D
:1095A000054605A20CA10FF0C1FD044628190BA128
:1095B0000FF0D6F9204470BD2F6F6E7669662D6866
:1095C0007474702F736E617073686F743F50726F34
:1095D00066696C655F31000047455400416363650F
:1095E00070743A20696D6167652F6A7065670D0A4E
:1095F0000D0A00007CB505460C4616480FF08DF8A4
:10960000002215A128461EF091F9642301AA69469B
:1096100010480EF0D1FD022802D06FF002007CBD90
:10962000009801783C2912D1BDF80420062A0ED3F7
:109630000F2A0CD8521FD1B2401C0FF081FC2060C1
:10964000B0F5803F01DB0020206000207CBD6FF082
:1096500001007CBD7035001051000000F8B50025F8
:109660000A262C46124800F081FF0A21104800F01B
:10967000D3FE0F4800F010FC05446A460021052087
:1096800008F07AFE641CE4B2B442EBD340F26B10F3
:10969000454305EB4620800AB0FBF6F028B1FF28D1
:1096A00003D2044908700020F8BD4FF0FF30F8BD28
:1096B00070E00020140000202DE9FC5F044600202B
:1096C00001900090FE4E2068DFF8F8B30D46B042DE
:1096D00009D0FD49884206D0584504D040F695216E
:1096E000FAA00FF0D9FB6868062831D00C282FD0DB
:1096F00012282DD018282BD0B0F5807F28D0B0F5B7
:10970000837F25D0B0F5867F22D0B0F5897F1FD02A
:10971000B0F58C7F1CD0B0F5007F19D0A0F500719A
:10972000063915D0B0F5037F12D0A0F500711239BB
:109730000ED0B0F5067F0BD0B0F5407F08D0A0F575
:109740004071063904D040F69621E0A00FF0A4FB4A
:10975000A86890B1012810D002280ED003280CD0A0
:1097600004280AD0052808D0062806D0072804D0E7
:1097700040F69721D5A00FF08FFBE868E14F7F28D6
:1097800006D0B84204D040F69821D0A00FF084FB58
:10979000286904280BD050B1012808D0022806D02F
:1097A000032804D040F69921C8A00FF075FB20686B
:1097B000C06800F01800810840F6FF70C840696971
:1097C000884204D240F69A21C0A00FF065FB2869B8
:1097D000042808D094F83800012804D140F69E21CE
:1097E000BAA00FF059FBC849C648D5F80C804A000A
:1097F00080452068C54BC64FDFF818C3DFF81893C3
:10980000DFF818A386467DD0B04240D12868884250
:1098100079D09042FCD09842FAD0A0F18658B8F1A5
:10982000100870D0DFF8F88240456CD0B8426AD09A
:10983000604568D0484566D0504564D0DFF8E48282
:10984000404560D0DFF8E08240455CD0DFF8DC8244
:10985000404558D0DFF8D882404554D0DFF8D48254
:10986000404550D0DFF8D08240454CD0DFF8CC8264
:10987000404548D06FF0004810EB080F43D0DFF8A8
:10988000C08240453FD0DFF8BC8240453BD0DFF886
:109890003882C64546D12868884234D0904232D0BA
:1098A000984230D0A0F18658B8F110082BD0DFF8DC
:1098B0007082404527D0B84225D0604523D0484526
:1098C00021D050451FD0DFF85C8240451BD0DFF827
:1098D0005882404517D0DFF85482404513D0DFF856
:1098E000508240450FD0DFF84C8240450BD0DFF866
:1098F0004882404507D0DFF84482404503D0DFF876
:10990000488201E044E07FE040457DD0DFF83C82C2
:10991000404579D0DFF83882404575D0DFF8348291
:10992000404571D0DE4530D1286888426CD09042E5
:109930006AD0984268D0A0F1865110397FD0B842E1
:109940007DD060457BD0484579D0504577D075496A
:10995000884274D07449884271D0744988426ED06C
:10996000734988426BD07349884268D072498842F3
:1099700065D07349884262D0724988425FD0764987
:1099800088425CD07549884259D040F6A32153E003
:10999000B04203D0DFF83081C6452FD12868884215
:1099A0004DD090424BD0984249D0A0F18658B8F1A2
:1099B000100844D0DFF86881404540D0B8423ED01E
:1099C00060453CD048453AD0504538D0DFF8548106
:1099D000404534D0DFF85081404530D0DFF84C812D
:1099E00040452CD0DFF84881404528D0DFF844813D
:1099F000404524D0DFF84081404520D0DE4519D1D4
:109A0000286888421BD000E019E0904217D09842A5
:109A100015D0B84213D0604511D048450FD05045FD
:109A20000DD0404988420AD03F49884207D03F497B
:109A3000884204D040F6A72124A00FF02DFA94F814
:109A40005000012812D0012784F85070206805F0DA
:109A500052FC68B1606D40F020006065012001900B
:109A6000002084F85000019800F012BA0220FBE7B1
:109A7000D5E900210C23206803EA91131844036BF5
:109A800001F01F014FF01F0C0CFA01FCC2F38462BD
:109A900023EA0C038A4013430363206805F02BFC80
:109AA0008046206805F023FC58EA00006ED1AA68C1
:109AB0002968206805F02BFC20686969C2684FE0BE
:109AC0000000045000020450000104502E2E5C449B
:109AD0007269766572735C53544D33324C347878C6
:109AE0005F48414C5F4472697665725C5372635C97
:109AF00073746D33326C3478785F68616C5F616465
:109B0000632E630000007F40020030040800900CC8
:109B1000400020198000501D000180210002B02566
:109B20002000F0140004002A0008302E00106032DB
:109B3000002090360040C03A0080F03E00002143F3
:109B4000000052C7000084CB000052470000844B45
:109B500000005AC700008CCB0040C0BA0080F0BEA5
:109B6000C2F3C102520091402A69042A0FD000EBCF
:109B700082002B68026EDFF8F0C203F0F84302EABD
:109B80000C020B431A4342F00041016672E00021CF
:109B900005F0A7FB400320684FF0000172D005F0EC
:109BA000A0FB90FAA0F0B0FA80F1286842036ED0D2
:109BB00090FAA0F0B0FA80F0814204D10022114660
:109BC000206805F0B3FB0121206805F08AFB400303
:109BD00020684FF001015DD005F083FB90FAA0F002
:109BE000B0FA80F12868420359D090FAA0F0B0FA98
:109BF00080F0814204D100220121206805F096FB0B
:109C00000221206805F06DFB400320684FF002013F
:109C100048D005F066FB90FAA0F0B0FA80F1286811
:109C2000420344D090FAA0F0B0FA80F0814204D10F
:109C300000220221206805F079FB0321206805F04D
:109C400050FB400320684FF0030133D005F049FB7F
:109C500090FAA0F0B0FA80F1286842032FD090FA71
:109C6000A0F0B0FA80F0814204D1002203212068E4
:109C700005F05CFB2068816811F0010F22D0ACE098
:109C800000E004E005F02DFBC0F384618DE7C0F334
:109C9000846091E705F025FBC0F38461A2E7C0F37F
:109CA0008460A6E705F01DFBC0F38461B7E7C0F34D
:109CB0008460BBE705F015FBC0F38461CCE7C0F31B
:109CC0008460D0E72A7B296850F8B03FC1F3120CBA
:109CD00023EA0C0302F0180C644A22FA0CF20A4040
:109CE000134303606248E968814276D128684103E2
:109CF0001BD090FAA0F1B1FA81F1491C01F01F01CB
:109D000009294FEA403131D8002911D090FAA0F149
:109D1000B1FA81F101F1010101F01F0107FA01F728
:109D200009D100BFC0F3846109E0C0F38461E4E7B6
:109D3000C0F38461EEE790FAA0F1B1FA81F101F18C
:109D4000010101F01F0147EA816102D1C0F3846083
:109D500003E090FAA0F0B0FA80F000F1010000F00A
:109D60001F0000EB400041EA005132E000290ED014
:109D700090FAA0F1B1FA81F101F1010101F01F01A6
:109D800007FA01F706D100BFC0F3846106E0C0F313
:109D90008461F1E790FAA0F1B1FA81F101F10101DA
:109DA00001F01F0147EA816102D1C0F3846003E042
:109DB00090FAA0F0B0FA80F000F1010000F01F006E
:109DC0002C4A00EB400002EB005041EA000141F058
:109DD0000071AA68206805F09AFA27482A680242AA
:109DE0003FF43EAE25488168254B01F0E0719A4270
:109DF0001CD10B021AD42268B24202D05A457FF419
:109E00002FAE826841F4000122F0E0720A438260C2
:109E10001C481D490068B0FBF1F000EB40008000D9
:109E200000E0401E00900028FBD119E6174B9A4233
:109E300009D1CB0107D42268B24201D05A45F4D1EE
:109E400041F080710AE06FF00043DA42EDD14A023E
:109E5000EBD42268B242E8D141F48001826822F05A
:109E6000E0720A438260FBE500F0FF03FFFF07009A
:109E700000007F40000020FE000008800003045026
:109E8000000052C7EC010010400D0300000084CB1D
:109E90003CBCBDE8C09F000010B5044600680849FE
:109EA00088420AD00749884207D00749884204D02F
:109EB00040F6A90105A00EF0EFFF2068006C10BD70
:109EC0000000045000010450000204502E2E5C4497
:109ED0007269766572735C53544D33324C347878C2
:109EE0005F48414C5F4472697665725C5372635C93
:109EF00073746D33326C3478785F68616C5F616461
:109F0000632E63002DE9F84F4FF0000504002E4644
:109F100000957DD0FE4F2068DFF8F883DFF8F893D6
:109F2000B84208D0404506D0484504D04FF4D1711E
:109F3000FAA00EF0B1FF6068B0F5803F2CD0B0F50C
:109F4000003F29D0B0F5403F26D028B3B0F5802F90
:109F500022D0B0F5002F1FD0B0F5402F1CD0B0F5A7
:109F6000801F19D0B0F5A01F16D0B0F5C01F13D0B8
:109F7000B0F5E01F10D0B0F5001F0DD0B0F5101FE8
:109F80000AD0B0F5201F07D0B0F5301F04D040F242
:109F9000A311E2A00EF080FFA06850B1082808D0FD
:109FA000102806D0182804D04FF4D271DBA00EF090
:109FB00073FFE06830B1202804D04FF4D471D7A0EB
:109FC0000EF06AFF206930B1012804D040F2A911D7
:109FD000D2A00EF061FF607E30B1012804D04FF4B2
:109FE000D571CEA00EF058FFE06A4FF4806A60B1E0
:109FF00050450AD0B0F5006F07D0B0F5406F04D0DF
:10A0000040F2AB11C5A00EF047FFA06A504500E03A
:10A010007EE032D0B0F5886F2FD0B0F5906F2CD0A5
:10A02000B0F5986F29D0B0F5A06F26D0B0F5A86F25
:10A0300023D0B0F5B06F20D0B0F5B86F1DD0B0F51B
:10A04000C06F1AD0B0F5C86F17D0B0F5D06F14D06C
:10A05000B0F5D86F11D0B0F5E06F0ED0B0F5E86F65
:10A060000BD0B0F5F06F08D0B0F5F86F05D020B187
:10A070004FF4D671A9A00EF00FFF94F8300030B164
:10A08000012804D040F2AD11A4A00EF005FF6069D4
:10A09000042806D0082804D04FF4D7719FA00EF0F2
:10A0A000FBFE606B38B1B0F5805F04D040F2AF11B9
:10A0B0009AA00EF0F1FE207E30B1012804D04FF4BA
:10A0C000D87196A00EF0E8FE94F8380030B101285F
:10A0D00004D040F2B11191A00EF0DEFE206918B359
:10A0E000E069401E0F2804D940F2B5118BA00EF094
:10A0F000D3FE94F8200018B301280CD04FF4DB7184
:10A1000086A00EF0C9FE94F82000012803D017E0C5
:10A11000012000F050B9606A401E072808D94FF4AA
:10A12000DD717EA00EF0B8FE94F82000012807D162
:10A13000607E012804D140F2BF1178A00EF0ACFE81
:10A14000606D28B9204600F039F9A66584F85060A2
:10A1500020688168C1F3407119B181687D4A11405E
:10A16000816020688168C1F3007179B981687A4A99
:10A17000114041F080518160784879490068B0FB16
:10A18000F1F000E0401E00900028FBD120688168BB
:10A19000C1F3007141B9616D41F010016165A16DBC
:10A1A00041F00101A165012505F0A5F8616DC90621
:10A1B00000D430B1606D40F0100060650125284684
:10A1C000A7E7606D20F4807040F0020060652068B1
:10A1D000806810F0010F14D1B868D8F8081000F0AA
:10A1E000010001F001010843D9F8081001F0010154
:10A1F000084306D15B486168826822F47C120A43F6
:10A200008260E168606B627E0843A16841EA423186
:10A21000084394F8201040EA0140012904D1A18CA0
:10A22000514A02EB41410843A16A29B101F470711E
:10A23000E26A014342EA01002168CA684B4B1A40B6
:10A240000243CA60206805F056F80646206805F00B
:10A250004EF8304315D1207E94F83010800340EA48
:10A2600041022068C16844F2020399431143C1606E
:10A2700094F8380001280CD02068016921F0010110
:10A280000161206901282068016B21F00F016FD066
:10A2900089E0E06B90B1042810D008280ED00C287B
:10A2A0000CD010280AD0142808D0182806D01C2852
:10A2B00004D04FF41C7119A00EF0EEFD206CA8B173
:10A2C000202813D0402811D060280FD080280DD02E
:10A2D000A0280BD0C02809D0E02807D0B0F5807F97
:10A2E00004D040F271210DA00EF0D6FD606C38B1A3
:10A2F000B0F5007F04D040F2722108A00EF0CCFD32
:10A30000A06C01283BD0A0F58061013937D030E046
:10A310000000045000010450000204502E2E5C4442
:10A320007269766572735C53544D33324C3478786D
:10A330005F48414C5F4472697665725C5372635C3E
:10A3400073746D33326C3478785F68616C5F61640C
:10A35000632E6300C0FFFF5FC0FFFF7FEC010010B2
:10A36000400D0300000304500000FEFF07C0F0FF93
:10A3700016E040F27321AFF25C000EF08DFDD4E9DF
:10A380000F010843D4E911121143084321680A69F7
:10A3900040F2FC739A43104340F00100086170E7FB
:10A3A000E269521E11430163606D20F0020040F02B
:10A3B0000100606503E718BCBDE8E08F10B586B00A
:10A3C000044614216846FDF774FF1049206888424E
:10A3D0001AD10F48C16C41F40051C164C16C01F441
:10A3E00000510591C16C41F02001C164C06C694607
:10A3F00000F020000590402000900B2001900020EC
:10A400000290044800F0B8FC06B010BD00020450F1
:10A4100000100240001400482DE9F047414E044668
:10A420000F46B068DFF8008100F01F052068DFF8F4
:10A43000FCA0404509D0504507D03D49884204D092
:10A4400040F287513BA00EF027FD606908280FD02D
:10A4500085B1052D0ED0092D0CD0B06800F46040F8
:10A4600060B1606D40F0200060650120BDE8F087BC
:10A47000082604E02068C068C007F1E7042600F061
:10A4800067FE814608E0781C06D000F061FEA0EB74
:10A490000900B8420FD877B1206800683042F2D086
:10A4A000606D40F400706065206804F028FFD0B152
:10A4B000607E48B117E0606D40F0040060650020E8
:10A4C00084F850000320D1E72068006800070AD50F
:10A4D000606D20F480706065606DC00403D4606DB1
:10A4E00040F0010060652068504501D1424600E01F
:10A4F0000246824208D03DB1052D05D0092D03D07A
:10A50000504503D1414602E0C16801E00146C968F7
:10A51000082E05D0490401D40C2101600020A5E7D4
:10A520000821FAE700030450000004500001045021
:10A53000000204502E2E5C447269766572735C537F
:10A54000544D33324C3478785F48414C5F447269E3
:10A550007665725C5372635C73746D33326C3478FD
:10A56000785F68616C5F6164632E63002DE9F04180
:10A5700004463E4880683E4D00F01F0620683D4F6F
:10A58000A84209D0B84207D03B49884204D04FF4D2
:10A5900099613AA00EF080FC206804F0ACFE18B17E
:10A5A00002210846BDE8F08194F8500001280CD043
:10A5B000012084F850002046FDF760FF01004FF0B5
:10A5C000000204D084F85020EBE70220EAE7606D37
:10A5D00040F60163984340F4807060652068B8429B
:10A5E00001D12B4600E00346834200D01EB9636DC3
:10A5F00023F480136365636DDB0404D5A36D23F03E
:10A600000603A36500E0A2651C23036084F85020C4
:10A610002068B84201D12A4600E00246824215D0A5
:10A62000A6B1052E12D0092E10D0626D42F4801210
:10A630006265B84200D00546E8688001B1D5606D1A
:10A6400020F4005040F480506065AAE7C26892018F
:10A6500005D5626D22F4005242F480526265826830
:10A66000144B1A40121D82609BE700000003045047
:10A670000000045000010450000204502E2E5C44DF
:10A680007269766572735C53544D33324C3478780A
:10A690005F48414C5F4472697665725C5372635CDB
:10A6A00073746D33326C3478785F68616C5F6164A9
:10A6B000632E6300C0FFFF7F10B590F825100022C5
:10A6C000022905D00421C16380F82420012010BD97
:10A6D00001680B6823F00E030B6001680B6823F020
:10A6E00001030B6090F84410046C01F01C0301217D
:10A6F00001FA03F3636080F8251080F824201046E7
:10A7000010BD10B590F825100024022903D00421B3
:10A71000C16301241AE001680A6822F00E020A608F
:10A7200001680A6822F001020A6090F84410036C84
:10A7300001F01C02012101FA02F25A6080F8251092
:10A74000002180F82410816B01B18847204610BD9C
:10A75000C06B7047F0B4016C0C6801680D6890F82C
:10A76000442002F01C06042202FA06F3234211D010
:10A770006B070FD50B689B0603D40B6823F004030B
:10A780000B6090F8441001F01C018A40016C4A6093
:10A79000016B1DE0022303FA06F727424FF0000C7D
:10A7A0004FF0010218D0AF0716D50C68A40605D4E7
:10A7B0000C6824F00A040C6080F8252090F84410FE
:10A7C00001F01C018B40016C4B6080F824C0C16A11
:10A7D00000291AD0F0BC08470823B340234214D004
:10A7E0002B0712D50B6823F00E030B6090F8441072
:10A7F000036C01F01C0102FA01F15960C26380F898
:10A80000252080F824C0416BE2E7F0BC70470000CF
:10A810002DE9F04104007CD079492068794D8842C7
:10A8200035D077491431884231D075492831884272
:10A830002DD073493C31884229D07149503188422A
:10A8400025D06F496431884221D06D4978318842E2
:10A850001DD0A8421BD06B491431884217D06949DA
:10A860002831884213D067493C3188420FD065496E
:10A87000503188420BD063496431884207D0614926
:10A880007831884203D0A4215FA00EF005FBA068B8
:10A890004FF4804638B1102805D0B04203D0A5212E
:10A8A00059A00EF0F9FAE068402804D018B1A621AA
:10A8B00055A00EF0F1FA2069802804D018B1A72124
:10A8C00051A00EF0E9FA606948B1B0F5807F06D07A
:10A8D000B0F5007F03D0A8214BA00EF0DDFAA069EF
:10A8E00048B1B0F5806F06D0B0F5006F03D0A92154
:10A8F00045A00EF0D1FAE06928B1202803D0AA21A2
:10A9000041A00EF0C9FA206A70B1B0F5805F0BD09B
:10A9100000E02CE0B0F5005F06D0B0F5405F03D05A
:10A92000AB2139A00EF0B8FA606888B101280FD0C9
:10A9300002280DD003280BD0042809D0052807D001
:10A94000062805D0072803D0AD212FA00EF0A4FAC9
:10A950002B48226814210838AA420BD2284B5B42AC
:10A960001344B3FBF1F18900C4E910010CE00120AC
:10A97000BDE8F081234B5B421344B3FBF1F1890046
:10A980006164204908392164022184F82510136884
:10A9900047F6F0718B43D4E902152943D4E90457F3
:10A9A0003D432943A5692943E5692943256A29438C
:10A9B00019431160A168B14219D0226C0F21824263
:10A9C00002D150F8A82F02E00E48A030026894F897
:10A9D000443003F01C0399408A43026094F84420F9
:10A9E000616802F01C02914002681143016000207E
:10A9F000E063012184F8251084F82400B8E7000002
:10AA000008000240080402402E2E5C4472697665FC
:10AA100072735C53544D33324C3478785F48414CF8
:10AA20005F4472697665725C5372635C73746D33F4
:10AA3000326C3478785F68616C5F646D612E63009E
:10AA40002DE9F041884604460025581E4FF6FF7157
:10AA50001E461746884204D34FF4EF711DA00EF036
:10AA60001BFA94F8240001280DD0012084F824005A
:10AA700094F825100020012907D084F8240002252D
:10AA80002846BDE8F0810220FBE7022184F825106A
:10AA9000E0632068016821F00101016033463A4615
:10AAA00041462046FEF716F9206B00282068016811
:10AAB00002D041F00E0106E021F00401016020689F
:10AAC000016841F00A0101602068016841F001015C
:10AAD0000160D5E72E2E5C447269766572735C5313
:10AAE000544D33324C3478785F48414C5F4472693E
:10AAF0007665725C5372635C73746D33326C347858
:10AB0000785F68616C5F646D612E630008B56A46AA
:10AB10000021022007F030FC08BD0000F0B587B02E
:10AB200014216846FDF7C5FB1A48016800292ED19B
:10AB3000012101601848016D41F001010165006DBE
:10AB4000022400F0010005904FF69B7000250326BB
:10AB50000C278DE8F1006946104800F00DF94FF21E
:10AB60003F008DE8F10069460D4800F005F941F21B
:10AB70003F008DE8F10069460A4800F0FDF84FF605
:10AB8000B3708DE8F1006946074800F0F5F807B0AA
:10AB9000F0BD0000F400002000100240001000484A
:10ABA0000014004800180048000C00482DE9F84F38
:10ABB00000254FF09049504FDFF840A1DFF840B139
:10ABC0000E460446484516D0BC4214D0544512D017
:10ABD0005C4510D04B4884420DD04B4884420AD08B
:10ABE0004A48844207D04A48844204D04FF49F71B7
:10ABF00048A00EF051F93004000C01D0300C75D093
:10AC000040F23F1143A00EF047F96FE0012000FA37
:10AC100005F212EA060068D04D4925F003031944F5
:10AC200088468B68A9074FEA117C4FF00F0E0EFA89
:10AC30000CF1009119404C4501D100231BE0BC42AE
:10AC400001D1012317E0544501D1022313E05C45F3
:10AC500001D103230FE02B4B9C4201D104230AE0D6
:10AC6000294B9C4201D1052305E0284B9C4201D190
:10AC7000062300E0072303FA0CF38B4215D1354974
:10AC80000B6883430B60091D0B6883430B60091D30
:10AC90000B6883430B60091D0B6883430B600098AE
:10ACA000D8F808108143C8F8081021686B00032009
:10ACB000984001432160E90804EB8101D1F820C0EC
:10ACC0006B074FEAD3680EFA08F32CEA030CC1F8BD
:10ACD00020C0A1688143A160616891436160E1681F
:10ACE0008143E160E06A9043E0626D1C36FA05F052
:10ACF0008CD100F031B80000000400480008004882
:10AD0000000C0048001000480014004800180048DB
:10AD1000001C00482E2E5C447269766572735C5389
:10AD2000544D33324C3478785F48414C5F447269FB
:10AD30007665725C5372635C73746D33326C347815
:10AD4000785F68616C5F6770696F2E630000000058
:10AD5000000001400004014018BCBDE8E08F7047CE
:10AD6000044910B50A68024202D00860FFF7F7FFF5
:10AD700010BD0000140401402DE9F84F0027DFF852
:10AD80008CB20D460446B0F1904F17D05C4515D0FB
:10AD90009F48844212D09F4884420FD09E488442EC
:10ADA0000CD09E48844209D09D48844206D09D48DC
:10ADB000844203D0B3219CA00EF06EF828680104F1
:10ADC000090C01D0000C03D0B42197A00EF064F858
:10ADD000686808B301281FD011281DD002281BD095
:10ADE000122819D09F49884216D09F49884213D013
:10ADF0009E49884210D09E4988420DD09D49884284
:10AE00000AD09D49884207D0032805D00B2803D0DB
:10AE1000B52185A00EF040F8A868002807D00128C9
:10AE2000FCD00228FAD0B6217FA00EF035F8E5E07C
:10AE30000646012000FA07F816EA08067ED0686880
:10AE4000022801D012282ED1B4F1904F17D05C45C2
:10AE500015D06F48844212D06E4884420FD06E489D
:10AE600084420CD06D48844209D06D48844206D09B
:10AE70006C48844203D0C5216BA00EF00DF8286900
:10AE80000F2803D9C62168A00EF006F8F80804EBD5
:10AE90008002116A7807C30E0F2098408143286909
:10AEA00098400843106220687A00032101FA02F9F1
:10AEB0002979924601F0030120EA090001FA0AF11A
:10AEC000014321606868012805D0022803D01128B9
:10AED00001D012281CD1E86848B1012807D0022807
:10AEE00005D0032803D0DA214FA00DF0D5FFA068CC
:10AEF000E96820EA090001FA0AF10143A1606068EB
:10AF0000297920EA0800C1F30011B94001436160CA
:10AF10006968C843800707D1E06AC1F3C00120EA2D
:10AF20000800B9400143E162E068A96820EA09002D
:10AF300001FA0AF10143E160686800E05DE0C000E9
:10AF40005BD54E48016E41F001010166006E27F0AD
:10AF5000030100F00100009049480A189068B90701
:10AF60000B0F0F2199408843B4F1904F03D05C45FB
:10AF700003D101211BE0002119E025498C4201D1B8
:10AF8000022114E023498C4201D103210FE0224920
:10AF90008C4201D104210AE020498C4201D10521D3
:10AFA00005E01F498C4201D1062100E007219940AC
:10AFB00001439160334908686A68B043D20300D501
:10AFC000304308602F49091D08686A68B04392033E
:10AFD00000D5304308602B49083108686A68B043DF
:10AFE000D20200D53043086026480C3001686A68F8
:10AFF000B143920200D5314301607F1C2E68304678
:10B00000FE407FF415AF00F03FB800000004004898
:10B0100000080048000C00480010004800140048D8
:10B0200000180048001C00482E2E5C4472697665AA
:10B0300072735C53544D33324C3478785F48414CD2
:10B040005F4472697665725C5372635C73746D33CE
:10B05000326C3478785F68616C5F6770696F2E63FB
:10B06000000000000000111000002110000031104D
:10B0700000001210000022100000321000100240E8
:10B08000000001400004014018BCBDE8E08F000052
:10B0900070B50C00054604D14FF4C97103A00DF042
:10B0A000FBFE2869204000D0012070BD2E2E5C449C
:10B0B0007269766572735C53544D33324C347878D0
:10B0C0005F48414C5F4472697665725C5372635CA1
:10B0D00073746D33326C3478785F68616C5F67705D
:10B0E000696F2E630000000070B515460C0006461F
:10B0F00004D14FF4D97107A00DF0CEFE45B1012D5A
:10B1000004D040F2B31103A00DF0C6FEB46170BDCF
:10B11000B46270BD2E2E5C447269766572735C53A6
:10B12000544D33324C3478785F48414C5F447269F7
:10B130007665725C5372635C73746D33326C347811
:10B14000785F68616C5F6770696F2E630000000054
:10B1500001488068704700008401002010B5002479
:10B16000032000F0FBF8002000F008F808B10124EB
:10B1700001E000F025F8204610BD000070B50E4E2D
:10B1800005460024706898B14FF47A71B1FBF0F075
:10B190000A490968B1FBF0F003F04EF840B9102DF0
:10B1A00006D200222946501E00F088F8356000E0E3
:10B1B0000124204670BD000084010020EC01001035
:10B1C000094808B5016E41F001010166016E01F008
:10B1D00001010091816D41F080518165806D00F029
:10B1E0008050009008BD00000010024010B504001F
:10B1F00003D5E32109A00DF04FFE002C0DDB04F078
:10B200001F01012088406109890001F1E021C1F896
:10B210008001BFF34F8FBFF36F8F10BD2E2E5C44A4
:10B220007269766572735C53544D33324C3478785E
:10B230005F48414C5F4472697665725C5372635C2F
:10B2400073746D33326C3478785F68616C5F636FF0
:10B25000727465782E63000010B5040003D5D32105
:10B2600007A00DF019FE002C09DB04F01F010120DE
:10B2700088406109890001F1E021C1F8000110BD99
:10B280002E2E5C447269766572735C53544D333272
:10B290004C3478785F48414C5F4472697665725CE3
:10B2A0005372635C73746D33326C3478785F6861A9
:10B2B0006C5F636F727465782E63000070B515461D
:10B2C0000C460646102A03D3BF2114A00DF0E4FD5E
:10B2D000102C03D3C02111A00DF0DEFD1E48006824
:10B2E000C0F30223C3F107022046042A00D9042236
:10B2F000191D072901D2002300E0DB1E012404FAF6
:10B3000002F1491E014099409C40641E2C4021439B
:10B310003046BDE870400DF037BB00002E2E5C4477
:10B320007269766572735C53544D33324C3478785D
:10B330005F48414C5F4472697665725C5372635C2E
:10B3400073746D33326C3478785F68616C5F636FEF
:10B35000727465782E6300000CED00E010B50446B1
:10B3600007280BD0062C09D0052C07D0042C05D0BB
:10B37000032C03D0A72108A00DF08EFD154904F081
:10B38000070208684FF6FF03184040EA0220124AFD
:10B390001043086010BD00002E2E5C447269766573
:10B3A00072735C53544D33324C3478785F48414C5F
:10B3B0005F4472697665725C5372635C73746D335B
:10B3C000326C3478785F68616C5F636F7274657833
:10B3D0002E6300000CED00E00000FA05BFF34F8F74
:10B3E00005480168054A01F4E06111430160BFF3BB
:10B3F0004F8F00BFFDE700000CED00E00400FA05F0
:10B4000010B51B4CB0F5007F13D0B0F5806F03D0A2
:10B41000A82118A00DF040FD2068C0F341200228AB
:10B4200005D0206820F4C06040F4806020600020D7
:10B4300010BD2068C0F341200128F8D0206820F416
:10B44000C06040F400702060194832210068484311
:10B450001849B0FBF1F0401C00E0401E616949054D
:10B4600001D50028F9D160694005E0D5032010BD61
:10B47000007000402E2E5C447269766572735C53D6
:10B48000544D33324C3478785F48414C5F44726994
:10B490007665725C5372635C73746D33326C3478AE
:10B4A000785F68616C5F7077725F65782E6300000B
:10B4B000EC01001040420F000248416841F4007165
:10B4C00041607047007000400248006800F4C060AE
:10B4D00070470000007000400248016841F480712C
:10B4E00001607047007000402DE9FC5F04460027B2
:10B4F00000683E46C20704F120014FF0406B4FF058
:10B5000080684FF00069FE4D009129D1810727D452
:10B51000410725D4010723D4C10621D481061FD4B5
:10B5200041061DD401061BD4C10519D4810517D4C9
:10B53000410515D4010516D4C10444D481047DD439
:10B5400041047BD4010479D4C10377D4810378D436
:10B5500041036AD4000369D4CB21EAA00DF09CFC1E
:10B56000208800052CD5606E4FF4400A58B1B0F524
:10B57000800F08D0B0F5000F05D0504503D0D3217F
:10B58000E0A00DF089FC606E70B1B0F5800F10D0B6
:10B59000B0F5000F03D0504532D001270FE0E86826
:10B5A00040F48030E8602BE00021201D09F098FC79
:10B5B00003E00021009809F09DFD070020D03E46E1
:10B5C0002088C0043AD5A06E4FF0807A60B1504513
:10B5D0000AD0B0F1007F07D0B0F1407F04D040F234
:10B5E0001111C8A00DF058FCA06EB8B150451ED086
:10B5F000B0F1007F0DD0B0F1407F1DD001271CE0DD
:10B60000D5F88800616E20F440000843C5F8880032
:10B61000D6E7E86840F48030E8600DE00021201DA6
:10B6200009F05EFC07E009E00BE0ADE1F0E100218C
:10B63000009809F05FFD074667B33E462068800327
:10B6400049D5D4F884004FF0000A68B1B0F5807F86
:10B650000AD0B0F5007F07D0B0F5407F04D04FF49A
:10B66000A371A8A00DF018FCA86DC00009D4A86DA6
:10B6700040F08050A865A86D4FF0010A00F080509E
:10B680000190AF48016841F480710160FFF760FDEF
:10B69000019011E0D5F88800A16E20F040700843B9
:10B6A000C5F88800CAE700BFFFF752FD0199401AAC
:10B6B000022801D9032705E0A1480068C005F3D599
:10B6C000002F7CD04FEA0706BAF1000F03D0A86D17
:10B6D00020F08050A8652078C00714D0A06B50B12E
:10B6E000012808D0032806D0022804D040F29B117C
:10B6F00084A00DF0D1FBD5F88800A16B20F00300E9
:10B700000843C5F888002078800714D5E06B50B155
:10B71000042808D00C2806D0082804D040F2A5112F
:10B7200078A00DF0B9FBD5F88800E16B20F00C0093
:10B730000843C5F888002078400714D5206C50B124
:10B74000102808D0302806D0202804D040F2B111AB
:10B750006CA00DF0A1FBD5F88800216C20F0300022
:10B760000843C5F888002078000714D5606C50B1F4
:10B77000402808D0C02806D0802804D040F2BF114D
:10B7800060A00DF089FBD5F88800616C20F0C00046
:10B790000843C5F888002078C00619D5A06C68B1A8
:10B7A000B0F5807F0AD0B0F5407F07D0B0F5007FBC
:10B7B00004D040F2CD1153A00DF06EFB00E0E4E0A8
:10B7C000D5F88800A16C20F440700843C5F88800C3
:10B7D0002078800617D5E06C68B1B0F5806F0AD08C
:10B7E000B0F5406F07D0B0F5006F04D040F2D9112A
:10B7F00044A00DF051FBD5F88800E16C20F44060C6
:10B800000843C5F888002088800517D5E06D68B129
:10B81000B0F5802F0AD0B0F5002F07D0B0F5402F3B
:10B8200004D04FF4F17137A00DF036FBD5F8880045
:10B83000E16D20F440200843C5F8880020884005C9
:10B8400017D5206E68B1B0F5801F0AD0B0F5001F83
:10B8500007D0B0F5401F04D040F2E91129A00DF047
:10B860001BFBD5F88800216E20F440100843C5F872
:10B8700088002078400614D5206D50B1B0F5805F67
:10B8800007D0B0F5005F04D040F2F1111DA00DF01B
:10B8900003FBD5F88800216D20F440500843C5F81B
:10B8A00088002078000614D5606D50B1B0F5804F47
:10B8B00007D0B0F5004F04D040F2FD1111A00DF0FB
:10B8C000EBFAD5F88800616D20F440400843C5F8D4
:10B8D00088002088C00537D5A06D50B1B0F5803FF5
:10B8E00007D0B0F5003F04D040F2092105A00DF0CB
:10B8F000D3FAD5F88800A16D20F44030084321E048
:10B90000001002402E2E5C447269766572735C539F
:10B91000544D33324C3478785F48414C5F447269FF
:10B920007665725C5372635C73746D33326C347819
:10B93000785F68616C5F7263635F65782E63000097
:10B9400000700040C5F88800208880045DD5E06E56
:10B9500058B1404509D0484507D0584505D040F278
:10B960002221AFF260000DF097FAD5F88800E16E61
:10B9700020F040600843C5F88800E06E48453CD19F
:10B98000E86840F48010E8603FE0D5F8900010F4DB
:10B99000407015D0D4F88410814211D0D5F89000B1
:10B9A000D5F8901020F4407041F48031C5F8901023
:10B9B000D5F8901021F48031C5F89010C5F89000AA
:10B9C000C00710D0FFF7C4FB074608E0FFF7C0FB35
:10B9D000C11B41F28830814201D9032674E6D5F8B3
:10B9E00090008007F2D5D5F89000D4F8841020F4A8
:10B9F00040700843C5F8900066E6404505D1012136
:10BA0000201D09F06DFA00B106462068000325D517
:10BA1000206F58B1404509D0484507D0584505D05A
:10BA200040F24321AFF224100DF036FAD5F8880029
:10BA3000216F20F040600843C5F88800206F48451A
:10BA400004D1E86840F48010E86007E0404505D183
:10BA50000121201D09F044FA00B106462068400388
:10BA600025D5606F58B1404509D0484507D05845A5
:10BA700005D04FF41A71AFF274100DF00DFAD5F82D
:10BA80008800616F20F040600843C5F88800606F4F
:10BA9000484504D1E86840F48010E86007E040457C
:10BAA00005D10121201D09F01BFA00B106462088AE
:10BAB00040042AD5A06F4FF080574FF0005860B176
:10BAC000B8420AD0404508D0B0F1405F05D04FF4ED
:10BAD0002271AFF2D0100DF0DFF9D5F88800A16F18
:10BAE00020F040500843C5F88800A06FB84204D148
:10BAF0000221201D09F0F4F905E0404505D102219D
:10BB0000009809F0F7FA00B106462088000412D523
:10BB1000E06F40B1B0F1804F05D04FF42D71AFF21E
:10BB20001C200DF0B9F9D5F88800E16F20F08040B5
:10BB30000843C5F888002068C00313D5D4F88000F6
:10BB400040B1B0F1004F05D040F2C221AFF24C201D
:10BB50000DF0A2F955F8880FD4F8801020F00040BD
:10BB600008432860304600F000B83CBCBDE8C09FE8
:10BB70002DE9F0470E4605007ED02868401E0E28AD
:10BB800004D940F22E416FA00DF086F966B1012E66
:10BB90000AD0022E08D0032E06D0042E04D040F284
:10BBA0002F4168A00DF078F9744F386800F0070055
:10BBB000B04209D2386820F0070030433860386856
:10BBC00000F00700B04270D128786D4CC0073BD020
:10BBD000686830B301280ED002281FD003281AD07D
:10BBE00040F2464157A00DF057F96868032812D07B
:10BBF000022813D0A8B120684005002855DAA068B3
:10BC0000696820F003000843A060FFF7A1FA8046AE
:10BC100041F2883911E020688001EEE72068800356
:10BC2000EBE720688007E8E7FFF792FAA0EB08014E
:10BC3000494502D90320BDE8F087A068696800F093
:10BC40000C00B0EB810FEFD1287880071ED5A868D3
:10BC5000B0B1802814D0902812D0A02810D0B028DD
:10BC60000ED0C0280CD0D0280AD0E02808D0F02868
:10BC700006D040F2A24100E017E032A00DF00CF92E
:10BC8000A068A96820F0F0000843A060386800F0C0
:10BC90000700B0420BD9386820F007003043386005
:10BCA000386800F00700B04201D00120C3E72878CF
:10BCB0004FF4806640074FF4A0674FF4C0684FF41C
:10BCC000E06914D5E86860B1B0420AD0B84208D043
:10BCD000404506D0484504D040F2C14119A00DF0BE
:10BCE000DBF8A068E96820F4E0600843A0602878E9
:10BCF000000715D5286960B1B0420AD0B84208D013
:10BD0000404506D0484504D04FF499610DA00DF090
:10BD1000C3F8A068296920F4605040EAC100A0601F
:10BD200000F05AF8A168174AC1F30311515C01F001
:10BD30001F01C8401449086014480068BDE8F04776
:10BD4000FFF71CBA2E2E5C447269766572735C53E1
:10BD5000544D33324C3478785F48414C5F447269BB
:10BD60007665725C5372635C73746D33326C3478D5
:10BD7000785F68616C5F7263632E6300002002402D
:10BD80000010024078830508EC01001084010020B7
:10BD90000548064900688968054AC1F30221515CDB
:10BDA00001F01F01C8407047EC0100100010024074
:10BDB000B88305080548064900688968054AC1F343
:10BDC000C221515C01F01F01C8407047EC01001016
:10BDD00000100240B883050870B5254900231846B5
:10BDE0008A68CC6812F00C0204F00306214C4FEA7A
:10BDF000640509D00C2A05D0042A32D0082A00D1C3
:10BE0000284670BD012E10D10B681B0704D4D1F851
:10BE10009430C3F3032302E00B68C3F30313164EFD
:10BE200056F82330DAB10C2AEBD1C86800F00300D1
:10BE3000022818D0032818D01846CA68CB68C2F365
:10BE40000212C3F306234343521CB3FBF2F2C86849
:10BE5000C0F34160401C4000B2FBF0F070BD1846DA
:10BE600070BD204670BD2046E7E72846E5E70000A4
:10BE7000001002400024F400888305082DE9F843EF
:10BE800004007DD0206870B1C1070CD181070AD4AD
:10BE9000C10608D4010706D4400704D44FF4CF717B
:10BEA000F1A00CF0F9FFFE4DA86800F00C06E86860
:10BEB00000F003072078C0067ED5A06930B10128C4
:10BEC00004D040F2A711E8A00CF0E6FFE069FF28DB
:10BED00004D94FF4D471E4A00CF0DEFF206AD0B195
:10BEE000102818D0202816D0302814D0402812D07E
:10BEF000502810D060280ED070280CD080280AD08E
:10BF0000902808D0A02806D0B02804D040F2A9116B
:10BF1000D5A00CF0C1FF76B10C2E01D1012F0AD0B3
:10BF2000A069002828687BD040F001002860FFF756
:10BF30000FF980465EE02868800702D5A0690028D6
:10BF40009FD0216A2868000703D5286800F0F00018
:10BF500004E0D5F89400F02202EA1010814218D9CA
:10BF6000084609F0AFF900280AD1286840F0080017
:10BF700028602868216A20F0F0000843286000E06B
:10BF8000F7E06868E16920F47F4040EA01206860DA
:10BF900017E0286840F0080028602868216A20F02F
:10BFA000F000084328606868E16920F47F4040EAB7
:10BFB00001206860206A00E043E009F083F900286E
:10BFC000D2D1FFF709FFA968B64AC1F30311515C4A
:10BFD00001F01F01C840B4490860B4480068FFF789
:10BFE000CDF8002872D12CE0FFF7B2F8A0EB0800E2
:10BFF00002286CD828688007F6D5286840F0080029
:10C0000028602868216A20F0F000084328606868EA
:10C01000E16920F47F4040EA0120686011E0FFE719
:10C0200020F001002860FFF793F8804606E000BF8B
:10C03000FFF78EF8A0EB08000228DAD828688007FE
:10C04000F6D42078C00750D060684FF480384FF4A1
:10C05000A02940B1404506D0484504D040F2112106
:10C0600081A00CF019FF082E0AD00C2E01D1032F4D
:10C0700006D0606840450AD1286840F4803013E05B
:10C080002868800331D56068002872D02DE04845CB
:10C09000286803D140F480202860EDE720F4803048
:10C0A0002860286820F480202860606880B1FFF74D
:10C0B0004FF8804606E000BFFFF74AF8A0EB080003
:10C0C000642896D828688003F6D50EE0F4E1F2E102
:10C0D000FFF73EF8804605E0FFF73AF8A0EB0800CE
:10C0E000642886D828688003F6D42078800749D54C
:10C0F000E06838B1B0F5807F04D04FF411715AA0D8
:10C100000CF0CAFE20691F2804D940F2452156A030
:10C110000CF0C2FE042E0ED00C2E01D1022F0AD03C
:10C12000E068002828681DD040F480702860FFF780
:10C130000FF807460BE0286840050BD5E06800289B
:10C14000A3D007E0FFF704F8C01B0228B9D828687D
:10C150004005F7D56868217C20F0F85040EA01607E
:10C1600068600FE020F480702860FEF7F1FF07465A
:10C1700005E0D9E1FEF7ECFFC01B0228A1D8286832
:10C180004005F7D42078000731D56069E0B1012877
:10C1900006D040F2852134A00CF07EFE606998B193
:10C1A000D5F8940040F00100C5F89400FEF7D0FFE8
:10C1B000074604E0FEF7CCFFC01B022891D8D5F853
:10C1C00094008007F6D512E0D5F8940020F0010025
:10C1D000C5F89400FEF7BCFF074604E0FEF7B8FF81
:10C1E000C01B0228B2D8D5F894008007F6D4207876
:10C1F00040076FD5A068002740B1012806D0052868
:10C2000004D04FF4367118A00CF046FEA86DC000A3
:10C2100008D4A86D40F08050A865A86D012700F0F3
:10C220008050009022480168C90513D401688146F6
:10C2300041F480710160FEF78BFF804606E000BF8D
:10C24000FEF786FFA0EB0800022897D8D9F8000077
:10C25000C005F5D5A06801283DD00528D5F8900087
:10C260003ED020F0010025E02E2E5C4472697665F8
:10C2700072735C53544D33324C3478785F48414C80
:10C280005F4472697665725C5372635C73746D337C
:10C29000326C3478785F68616C5F7263632E630020
:10C2A0000010024078830508EC0100108401002092
:10C2B00000700040C5F89000D5F8900020F0040010
:10C2C000C5F89000A06841F28839D0B1FEF740FF70
:10C2D000804611E029E0D5F8900040F00100EFE73A
:10C2E00040F00400C5F89000F5E700BFFEF730FF0E
:10C2F000A0EB08014945A8D8D5F890008007F5D5EE
:10C300000EE0FEF725FF804606E000BFFEF720FFA7
:10C31000A0EB0801494598D8D5F890008007F5D4DE
:10C320001FB1A86D20F08050A865A06A00287DD0BC
:10C3300001280AD0022808D040F26631AFF2D800B6
:10C340000CF0AAFDA06A0028F1D00C2E6FD00228B4
:10C3500008D0286820F080702860286810F0205FDE
:10C3600066D09AE0E06A58B1012809D0022807D0C7
:10C37000032805D04FF45C71AFF214100CF08CFD63
:10C38000206B401E072805D940F27131AFF228100A
:10C390000CF082FD606B08384E2805D940F27231EE
:10C3A000AFF23C100CF078FDA06B072807D01128E5
:10C3B00005D04FF45D71AFF250100CF06DFDE06BE5
:10C3C00002280BD0042809D0062807D0082805D059
:10C3D00040F27631AFF270100CF05EFD206C022856
:10C3E0000BD0042809D0062807D0082805D040F231
:10C3F0007731AFF28C100CF04FFD286820F0807080
:10C400002860FEF7A5FE064605E000BFFEF7A0FE89
:10C41000801B02284FD828688001F7D4D4E90B018B
:10C420006FF00F0202EB0111084302E07EE049E0E9
:10C430002FE0A18F5204490802EB4151626B41EA9F
:10C440000221084394F840104FF07E42490802EB65
:10C4500041610843A16B090940EA4140E968344A57
:10C4600011400843E860286840F080702860E86860
:10C4700040F08070E860FEF76BFE044605E000BF08
:10C48000FEF766FE001B022815D828688001F7D544
:10C490004CE0E86820F00300E860E86825490840BF
:10C4A000E860FEF755FE044608E000BFFEF750FEC8
:10C4B000001B022802D90320BDE8F8832868800108
:10C4C000F4D433E00128F7D0E868E26A00F0030111
:10C4D000914229D1216B00F070020901103991427B
:10C4E00022D1626B00F4FE41B1EB022F1CD1A26B92
:10C4F00000F40031072A01D0012200E0002291421D
:10C5000012D1A18F00F4C00249084905A1F500111C
:10C51000914209D194F8401000F0C06049084906E2
:10C52000A1F10071814201D00120C5E70020C3E7DD
:10C530008C809DF9FFFFEEFE2DE9F05F15000F46A0
:10C5400004460ED0012D0CD0022D0AD0032D08D0A8
:10C55000042D06D0062D04D040F2163138A00CF080
:10C560009BFCB7F5803F04D340F2173134A00CF0A8
:10C5700093FC94F82000012826D04FF0010984F89C
:10C580002090022084F821002168CA204862216896
:10C59000532048622068816821F4806181602068AE
:10C5A000C16801F0800161F49061C1602068C068D9
:10C5B0004FF0000840064FF0FF0A1BD4FEF7C8FDFD
:10C5C00006464FF47A7B11E0022000F059B800BF14
:10C5D000FEF7BEFD801B584508D92168C1F824A08C
:10C5E000032084F8210084F82080EEE72068C068EA
:10C5F0004007EDD5206847612068816821F0070178
:10C60000294381601D48016841F4801101601B4885
:10C610000830016841F4801101602068816841F4AC
:10C62000804181602068816841F480618160216877
:10C63000C1F824A084F8219084F820800020C4E769
:10C640002E2E5C447269766572735C53544D33329E
:10C650004C3478785F48414C5F4472697665725C0F
:10C660005372635C73746D33326C3478785F6861D5
:10C670006C5F7274635F65782E6300000004014094
:10C6800030BCBDE8C09F704710B50B4904464FF45D
:10C69000801008602068C168490508D5C16801F0AC
:10C6A000800161F49061C1602046FFF7ECFF01203A
:10C6B00084F8210010BD00001404014070B515007D
:10C6C0000C46064606D0012D04D040F2B73110A02A
:10C6D0000CF0E2FB306841681B480140080CE07038
:10C6E000C1F30422627001F03F02A270C1F3423133
:10C6F000217055B908F024FEE070607808F020FE43
:10C700006070A07808F01CFEA070002070BD0000D2
:10C710002E2E5C447269766572735C53544D3332CD
:10C720004C3478785F48414C5F4472697665725C3E
:10C730005372635C73746D33326C3478785F686104
:10C740006C5F7274632E63003FFFFF0070B51500CD
:10C750000C46064606D0012D04D040F2373114A015
:10C760000CF09AFB3068806A606030680069C0F342
:10C770000E00A060306801681B480140C1F305400D
:10C780002070C1F30622627001F07F02A270890D51
:10C79000E17055B908F0D4FD2070607808F0D0FD44
:10C7A0006070A07808F0CCFDA070002070BD000083
:10C7B0002E2E5C447269766572735C53544D33322D
:10C7C0004C3478785F48414C5F4472697665725C9E
:10C7D0005372635C73746D33326C3478785F686164
:10C7E0006C5F7274632E63007F7F7F0010B504005E
:10C7F0004FF001007ED047492068884203D0F021E5
:10C8000045A00CF049FB6068402804D018B1F12124
:10C8100041A00CF041FBA0687F2803D9F2213EA083
:10C820000CF03AFBE068B0F5004F03D3F3213AA0D7
:10C830000CF032FB206960B1B0F5001F09D0B0F5F3
:10C84000800F06D0B0F5C00F03D0F42132A00CF059
:10C8500023FB606928B1022803D0F5212EA00CF03B
:10C860001BFBA06930B1B0F5801F03D0F6212AA0D0
:10C870000CF012FBE06928B1012803D0F72126A0B3
:10C880000CF00AFB94F8210028B9002084F820005D
:10C89000204600F05FF8022084F821002168CA20B9
:10C8A0004862216853204862204608F05FFD002856
:10C8B0002FD120688168264A1140816020688168F4
:10C8C0006268A369114322691A4311438160216898
:10C8D000E068086120680169228941EA024101613A
:10C8E000204608F067FD002813D12168CA6C22F0A9
:10C8F000030200E00DE0CA646269E1691143226845
:10C90000D36C1943D1642268FF215162012184F85C
:10C91000211010BD002800402E2E5C4472697665FF
:10C9200072735C53544D33324C3478785F48414CC9
:10C930005F4472697665725C5372635C73746D33C5
:10C94000326C3478785F68616C5F7274632E630058
:10C95000BFFF8FFF10B50068094988420FD1094811
:10C9600050F8901F41F4004101600022114603205D
:10C97000FEF7A4FCBDE810400320FEF76DBC10BD1F
:10C9800000280040001002402DE9F04116000C463E
:10C99000054606D0012E04D04FF4597152A00CF078
:10C9A0007BFA95F82000012807D0012785F8207030
:10C9B000022085F821001EB109E00220BDE8F081C7
:10C9C0006078C10603D500F0EF000A30607020786F
:10C9D000012810D002280ED003280CD004280AD039
:10C9E000052808D0062806D0072804D04FF45C712B
:10C9F0003DA00CF051FAE078002E3AD008F0A0FCEF
:10CA0000632804D940F27F3137A00CF045FA6078F2
:10CA100008F096FC20B1607808F092FC0C2804D94C
:10CA20004FF4607130A00CF037FAA07808F088FC61
:10CA300020B1A07808F084FC1F2804D940F281318D
:10CA400029A00CF029FAA078E17840EA0146607844
:10CA50002178000240EA413006432968CA20486232
:10CA6000296853204862284608F080FC00282AD014
:10CA700030E0632804D94FF45D711BA00CF00CFA70
:10CA80006078401E0B2804D940F2753116A00CF0D6
:10CA900003FAA078401E1E2804D940F2763112A075
:10CAA0000CF0FAF9E07808F054FC0304607808F020
:10CAB00050FC43EA0023A07808F04BFC03432078A5
:10CAC00043EA4036C9E716480640286846602846CB
:10CAD00008F070FC2A68FF21516208B985F82170BE
:10CAE000002185F8201069E72E2E5C447269766576
:10CAF00072735C53544D33324C3478785F48414CF8
:10CB00005F4472697665725C5372635C73746D33F3
:10CB1000326C3478785F68616C5F7274632E630086
:10CB20003FFFFF002DE9F04116000C46054606D0F8
:10CB3000012E04D040F2CA2168A00CF0ADF9E068E3
:10CB4000B0F5003F08D0B0F5803F05D020B140F2ED
:10CB5000CB2162A00CF0A0F9206938B1B0F5802F8C
:10CB600004D04FF433715DA00CF096F995F82000D5
:10CB7000012812D04FF0010885F82080022085F8A6
:10CB800021002968CA204862296853204862284643
:10CB900008F0ECFB002718B197E00220BDE8F08117
:10CBA000286880684FEA4060BEB1002851DA2078DA
:10CBB00008F0C6FB20B1207808F0C2FB0C2804D98D
:10CBC00040F2F22145A00CF067F9E07800284BD044
:10CBD000012849D040F2F32143E000280FDA207801
:10CBE000401E0B2804D940F2DE213CA00CF054F981
:10CBF000E07868B101280BD040F2DF2105E0E77052
:10CC00002078172804D94FF4397134A00CF044F976
:10CC100060783B2804D940F2E62130A00CF03CF9C2
:10CC2000A0783B2804D940F2E7212CA00CF034F97D
:10CC3000207808F08EFB0304607808F08AFB43EA52
:10CC40000023A07808F085FB0343E07843EA805096
:10CC500028E0E770207808F073FB172804D94FF418
:10CC60003E711EA00CF018F9607808F069FB3B28B3
:10CC700004D940F2FA2119A00CF00EF9A07808F0BE
:10CC80005FFB3B2804D940F2FB2114A00CF004F90F
:10CC9000A0782178E27840EA01406178090241EA0F
:10CCA000825108431B490840296808602868816848
:10CCB00021F480218160D4E90301084329688A684E
:10CCC00010438860284608F075FB2A68FF215162EE
:10CCD00008B985F8218085F820705FE72E2E5C4426
:10CCE0007269766572735C53544D33324C34787884
:10CCF0005F48414C5F4472697665725C5372635C55
:10CD000073746D33326C3478785F68616C5F727401
:10CD1000632E63007F7F7F0070B504460068C168A2
:10CD200021F0A001C160FEF713FA05464FF47A76B0
:10CD300007E000BFFEF70CFA401BB04201D9032008
:10CD400070BD2068C0688006F4D5002070BD10B5A5
:10CD5000FBF7D0FC10BD00002DE9FE430F00044698
:10CD60004FF480564FF4006508D0AF4206D0B7426A
:10CD700004D040F664213AA00CF08EF8032084F829
:10CD80003400606C032859D0B74257D000264FF0CA
:10CD90008068AF421ED1009601960021206809F0FC
:10CDA00019FD800113D46946204609F07FFE050075
:10CDB0000DD10198400333D5B4F850000104206828
:10CDC00009F098F9050002D10221206822E0A06B49
:10CDD000284327E01FB1A06B40F0006022E00096DE
:10CDE00001960021206809F0F5FC8001EFD4694626
:10CDF000204609F05BFE0500E9D10198C0030FD57C
:10CE0000B4F850000104206809F074F90500DED17F
:10CE10000021206809F0BBF90500D8D13546D6E7D6
:10CE20004546D4E7A063A06B012558B121681A4894
:10CE3000886384F83450012000F030B8A06B40F0D3
:10CE40008050EFE7211DD4E905060EC90097CDE912
:10CE50000106206809F0EEFC84F834500020EBE76E
:10CE60002E2E5C447269766572735C53544D333276
:10CE70004C3478785F48414C5F4472697665725CE7
:10CE80005372635C73746D33326C3478785F6861AD
:10CE90006C5F73642E630000FF05400006BCBDE8B4
:10CEA000F883000010B5040016D00C4920688842B1
:10CEB00004D040F233210AA00BF0EEFF032084F8E7
:10CEC0003400206809F02CFD204600F0C5FA00204F
:10CED000A06384F8340010BD012010BD002801407B
:10CEE0002E2E5C447269766572735C53544D3332F6
:10CEF0004C3478785F48414C5F4472697665725C67
:10CF00005372635C73746D33326C3478785F68612C
:10CF10006C5F73642E63000070470000F0B5426ED2
:10CF2000920F0A70426EC2F383624A70426EC2F37D
:10CF300001628A70426E120CCA70B0F86420120A44
:10CF40000A7190F864204A71826E120DCA80826E56
:10CF5000C2F303420A72B0F86820C2F3C0324A72C8
:10CF6000B0F86820C2F380328A72B0F86820C2F349
:10CF70004032CA72B0F86820C2F300320A73002649
:10CF80004E73426C4FF40075012462B1012A3AD00D
:10CF9000026847499163816B41F08051816380F859
:10CFA00034400120F0BDB0F86820C36E9205120D28
:10CFB00042EA93720A61C26EC2F3C2620A75C26E1D
:10CFC000C2F302624A75C26EC2F342528A75C26EE1
:10CFD000C2F38242CA75C26EC2F3C2320A760A69CD
:10CFE000521C42650B7E03F007039B1C9A4042656E
:10CFF0000B7A03F00F0704FA07F383655B0A5A43C1
:10D00000C0E917250EE090F86820C36E9206920AD8
:10D0100042EA13420A610A69521C92024265C0E95F
:10D020001652056630F86C2FC2F3803201F8192FC2
:10D030000288C2F3C6124A70027802F07F028A7038
:10D040004268D20FCA704268C2F341720A714268E4
:10D05000C2F382624A714268C2F383528A714268A3
:10D06000C2F34052CA710E724268C2F300424A7261
:10D070008288C2F3C0328A728288C2F38032CA7256
:10D080008288C2F340320A738288C2F300324A7344
:10D090008288C2F381228A738288C2F30122CA7312
:10D0A0000079C0F3460008744C740020F0BD000005
:10D0B000FF054000426C0A60826C4A60C26C8A6064
:10D0C000026DCA60426D0A61826D4A61C26D8A61F9
:10D0D000006EC8610020704770B50446B0F850007B
:10D0E00000250104206809F05CF918B1A16B014327
:10D0F000A16304E00021206809F06CFB0546C5F33C
:10D10000432070BD2DE9F843056B04460068416B70
:10D1100009041CD529071AD5D4E90A56002E14D0C3
:10D120000027206809F008FC05F8010B010A05F842
:10D13000011B010C05F8021B000E361F7F1C05F8B1
:10D14000010C082FEDD3C4E90A56BDE8F883416B02
:10D150004FF00006C90540F23A584FF0010743D599
:10D16000390281632068C16B4CF23A129143C1636A
:10D170002068C16A21F00101C16228071CD515F0A1
:10D18000220F09D0206809F03DF928B1A16B0143B5
:10D19000A1632046FFF7C0FE2168C1F8388084F8FB
:10D1A00034702663A80703D0204600F0C0FACCE70D
:10D1B000204600F0C0FAC8E72806C6D5A80609D55B
:10D1C000206809F01FF928B1A16B0143A163204633
:10D1D000FFF7A2FEA807B8D12068C16A21F00801B4
:10D1E000C16284F83470E3E7416B490423D5290711
:10D1F00021D5D4E90856002EA7D0002715F8010B39
:10D20000009015F8011B361F40EA0120009015F828
:10D21000021B40EA0140009015F8011C40EA016041
:10D2200000906946206809F0E7FB7F1C082FE5D3D2
:10D23000C4E9085689E7416B11F03A0F85D0416B7C
:10D24000890703D5A16B41F00201A163416B090776
:10D2500003D5A16B41F00801A163416B890603D599
:10D26000A16B41F02001A163416BC90603D5A16BFD
:10D2700041F01001A163C0F838802068C16B21F42F
:10D280009D71C163206809F0BDF8A16B0843A063DC
:10D29000280706D584F8347026632046FFF73CFE45
:10D2A00053E7280687D515F0300F0CD0E16B1148F5
:10D2B0008863E06BFDF725FA0028BBD0E06BBDE882
:10D2C000F84309F0D1BBA8070CD0216C0A48886349
:10D2D000206CFDF716FA0028ACD0206CBDE8F843AE
:10D2E00009F0A0BBA66384F8347026632046FFF7DC
:10D2F0002EFD2AE7696A0108256A010870B5040055
:10D3000054D02F492068884204D040F271112DA0DA
:10D310000BF0C2FD606838B1B0F5005F04D04FF487
:10D32000B97128A00BF0B8FDA06838B1B0F5806FD6
:10D3300004D04FF4BA7123A00BF0AEFDE06838B111
:10D34000B0F5007F04D04FF4BB711EA00BF0A4FD1C
:10D35000206950B1B0F5006F07D0B0F5805F04D000
:10D3600040F2771117A00BF097FD606938B1B0F566
:10D37000804F04D04FF4BC7112A00BF08DFDA0695A
:10D38000FF2804D940F279110EA00BF085FD94F826
:10D390003400002518B92577204600F07FF80320D7
:10D3A00084F83400204600F029F808B1012070BD4F
:10D3B000A5632563012084F83400002070BD0000BF
:10D3C000002801402E2E5C447269766572735C53AE
:10D3D000544D33324C3478785F48414C5F44726925
:10D3E0007665725C5372635C73746D33326C34783F
:10D3F000785F68616C5F73642E6300003EB5002146
:10D40000044676200091CDE901100B460A462068BB
:10D4100009F010FA40B92068416821F48071416038
:10D42000206809F081FA08B101203EBD20684168FA
:10D4300041F480714160204609F01CFC012520B9AF
:10D44000204609F0A0FB0028EFD084F83450A16BEF
:10D450000143A163E8E7000010B500680B4988426A
:10D4600012D10B48016E21F4806101664FF4F8512E
:10D470000848FDF79BFB04210748FDF797FBBDE833
:10D4800010403120FDF7B2BE10BD00000028014061
:10D490000010024000080048000C0048F0B587B0BA
:10D4A000044614216846FAF704FF1D4920688842A3
:10D4B00033D11C48016E41F480610166016E01F4B4
:10D4C00080610591C16C41F00401C164C16C01F03F
:10D4D00004010591C16C41F00801C164C06C0224D3
:10D4E00000F0080005904FF4F850002503260C27A3
:10D4F0008DE8F10069460C48FDF73EFC04208DE8FC
:10D50000F10069460948FDF737FC00221146312039
:10D51000FDF7D4FE3120FDF79FFE07B0F0BD0000FF
:10D52000002801400010024000080048000C00489C
:10D530002DE9F04F87B09B4616460D460446FDF791
:10D5400007FE00903DB194F83400012807D0A06B8D
:10D5500040F000500DE0A06B40F0006009E00027B3
:10D56000A763E16D06EB0B00884204D9A06B40F085
:10D570000070A06395E0032084F834002068C7623F
:10D58000606C012800D076024FF40071206808F02A
:10D59000E5FDDFF890A1012140B12368C3F838A070
:10D5A000A26B0243A26384F834107AE04FF0FF309C
:10D5B00001904FEA4B200290902003900220CDE989
:10D5C000040706918846B94601A9206808F066FF5D
:10D5D000BBF1010F06D9022020633146206808F014
:10D5E00051FE05E0C4F830803146206808F063FE43
:10D5F00030B12268C2F838A0A16B0143A1634CE0AE
:10D60000029E1FE0406B000413D596B100272068EE
:10D6100009F092F905F8010B010A05F8011B010C4C
:10D6200005F8021B000E361F7F1C05F8010C082FA1
:10D63000EDD3FDF78DFD01460098091A109881423F
:10D640001CD2D8B12068416B11F4957FDAD0416BC0
:10D65000C90509D5BBF1010F06D9616C032903D0B7
:10D6600008F0D0FE0028C4D12068416B09071AD504
:10D67000C0F838A0A06B40F0080051E02168C1F864
:10D6800038A0A06B40F00040A06384F83480C4F858
:10D690003090032007B000F047B884F83480C4F815
:10D6A00030900120F6E7416B890705D5C0F838A016
:10D6B000A06B40F0020033E0416B89061CD5C0F836
:10D6C00038A0A06B40F020002AE000BF09F034F938
:10D6D00005F8010B010A05F8011B010C05F8021BF6
:10D6E000000E05F8010C361FFDF732FD0099411AB6
:10D6F000109881420ED268B12068416B890201D531
:10D70000002EE3D1216840F23A50886384F83480D7
:10D710000020BFE72168C1F838A0A06B40F00040AE
:10D72000A063BAE7FF05400030BCBDE8C08F10B56C
:10D73000FBF72AF810BD10B5FBF738F810BD000054
:10D740002DE9FF4F8DB016460D460446FDF700FD4E
:10D750000B903DB194F83400012807D0A06B40F045
:10D7600000500DE0A06B40F0006009E00027A763C7
:10D770001098E16D3044884204D9A06B40F00070ED
:10D78000A0638BE0032084F834002068C762606CDB
:10D79000012800D076024FF40071206808F0DEFC0A
:10D7A000DFF864B1012140B12368C3F838B0A26B3F
:10D7B0000243A26384F8341070E04FF0FF3003900E
:10D7C00010988946400204909020CDE90507CDE9E4
:10D7D0000771BA4603A9206808F060FE1098012876
:10D7E00006D9202020633146206808F025FE05E098
:10D7F000102020633146206808F037FE5FEA0008F9
:10D8000006D02168C1F838B0A06B40EA080071E08A
:10D81000049E27E0406B40041CD5DEB15FF000079A
:10D8200015F8010B009015F8011B361F40EA012086
:10D83000009015F8021B40EA0140009015F8011C09
:10D8400040EA016000906946206809F0D5F87F1C25
:10D85000082FE5D3FDF77CFC0B99411A1A988142F9
:10D8600020D2F8B12068416B11F48D7FD2D0416B8A
:10D87000C90524D51099012921D9616C03291ED02D
:10D8800008F0C0FDD8B12268C2F838B0A16B0143DE
:10D89000C4F8381084F83490C4F830A0012011B0D6
:10D8A00000F034B82168C1F838B0A06B40EA080035
:10D8B000A06384F83490C4F830A00320EFE7206818
:10D8C000416B090705D5C0F838B0A06B40F00800DF
:10D8D00010E0416B890705D5C0F838B0A06B40F067
:10D8E000020007E0416BC90606D5C0F838B0A06B4E
:10D8F00040F01000A063CDE740F23A51816384F814
:10D9000034900020CBE70000FF05400030BCBDE8AC
:10D91000C08F00002DE9F04104007DD07B492068D4
:10D9200088420AD07A49884207D07A49884204D08E
:10D930004FF4A27178A00BF0AFFA606838B1B0F57F
:10D94000827F04D040F2451173A00BF0A5FAA068C5
:10D950004FF4806648B1B04207D0B0F5004F04D014
:10D960004FF4A3716CA00BF097FAE0684FF4706766
:10D970004FF4E065B84226D0B0F5606F23D0B0F523
:10D98000506F20D0B0F5406F1DD0B0F5306F1AD079
:10D99000B0F5206F17D0B0F5106F14D0B0F5006F50
:10D9A00011D0A8420FD0B0F5C06F0CD0B0F5A06F69
:10D9B00009D0B04207D0B0F5407F04D040F2471103
:10D9C00055A00BF069FAA069B0F5007F08D038B116
:10D9D000B0F5802F04D04FF4A4714FA00BF05CFA87
:10D9E000606B082805D020B140F249114AA00BF025
:10D9F00053FAE069A0B1082812D0102810D01828D6
:10DA00000ED020280CD028280AD0302808D038285A
:10DA100006D04FF4A57100E017E03FA00BF03CFAF0
:10DA2000206A30B1802804D040F24B113AA00BF0AC
:10DA300033FA606A60B110281CD04FF4A67136A08A
:10DA40000BF02AFA606A18B114E00120BDE8F081F9
:10DA5000206930B1022804D040F24F112EA00BF003
:10DA60001BFA606930B1012804D04FF4A8712AA0D4
:10DA70000BF012FA0026A66294F85D0020B984F833
:10DA80005C60204600F064F8022284F85D20206883
:10DA9000016821F040010160E068A84203D900213B
:10DAA000B84202D104E04FF48051A84200D0A662EF
:10DAB000276B012327B9A84201D9226300E0236321
:10DAC000D4E901021043D4E904252A431043228BF0
:10DAD00002F400721043E2691043226A1043A26A02
